S01B0000323035323130465F546875727368616E69204E2E7372656316
S11300000C942A000C9447000C9447000C9447006D
S11300100C9447000C9447000C9447000C94470040
S11300200C9447000C9447000C9447000C94470030
S11300300C9447000C9447000C9447000C94470020
S11300400C9447000C9447000C9447000C94470010
S11300500C94470011241FBECFE5D8E0DEBFCDBF0E
S113006011E0A0E6B0E0E6E2FBE002C005900D92EC
S1130070A236B107D9F721E0A2E6B1E001C01D9292
S1130080A937B207E1F70E9486020C9491050C94FB
S11300900000813021F488E080936000089510927C
S11300A060000895382F362B20916000232B28BB45
S11300B090916000932B946098BBEFE8F1E0319746
S11300C0F1F700C000008B7F682B80916000682BE3
S11300D068BB8FE99FE00197F1F700C00000089525
S11300E0CF93C82F60E0807F0E94520060E08C2F85
S11300F08295807F0E945200CF91089581E00E94F2
S113010049008FE39CE90197F1F700C000008FEFED
S113011087BB82E00E94700088E20E9470008CE03D
S11301200E94700086E00E94700081E00E947000CE
S11301300895CF93C82F61E0807F0E94520061E050
S11301408C2F8295807F0E945200CF9108950F9347
S11301501F93CF93DF938C01C0E0D0E003C00E94D3
S113016099002196F801EC0FFD1F80818111F7CFD2
S1130170DF91CF911F910F910895CF93DF93EA01FF
S1130180613031F058F0623029F0633029F007C053
S113019090EC05C094E903C094ED01C090E88F7021
S11301A0892B0E947000CE010E94A700DF91CF919D
S11301B008958FE08ABB80EF8BBB89B38F608095F5
S11301C0E1F3803249F018F4803161F00CC08034DE
S11301D029F0803829F007C091E005C092E003C0FF
S11301E093E001C090E01ABA1BBA80EF8ABB8FE09B
S11301F08BBB89B3806F8095823049F018F48130CD
S113020061F00CC0843029F0883029F007C0E1E0A7
S113021005C0E2E003C0E3E001C0E0E08FE08ABB98
S113022080EF8BBBF0E0EE0FFF1FEE0FFF1FEE5AC7
S1130230FE4FE90FF11D808108951F93CF93DF9343
S113024000D000D000D0CDB7DEB781E00E947000AE
S113025041E650E060E080E00E94BD002FEF84E3BF
S11302609CE0215080409040E1F700C00000FE0176
S1130270319686E0DF011D928A95E9F71F921F925D
S11302801F921F921F921F921F921F921F921F92E2
S11302901F921F9280E790E09F938F9385E691E0F1
S11302A09F938F930E94A70245E651E061E080E0AE
S11302B00E94BD0043ED50E061E080E00E94BD007B
S11302C08DE00E9470000FB6F894DEBF0FBECDBF64
S11302D010E00E94D900809363018A3008F042C084
S11302E0E1E0F0E0EC0FFD1FE10FF11D80835E8182
S11302F04D813C812B819A8189811F925F931F924A
S11303004F931F923F931F922F931F929F931F927D
S11303108F9380E790E09F938F9385E691E09F937E
S11303208F930E94A70245E651E061E080E00E94BD
S1130330BD001F5F0FB6F894DEBF0FBECDBF1630F1
S113034008F010E043ED50E061E0812F0E94BD0011
S1130350BFEF21EE84E0B15020408040E1F700C0BF
S11303600000B7CF8E3009F0B4CF81E00E94700056
S11303708CE00E94700050E010E027C0242F30E091
S1130380852F90E0FC01EE0FFF1FE80FF91FEE0F21
S1130390FF1FEC5CFE4FC901E80FF91F2081E1E06B
S11303A0F0E0EC0FFD1FE80FF91F8081281301C056
S11303B01F5F4F5F02C040E010E04630F8F2163095
S11303C018F05093620103C05F5F5530A0F381E0E1
S11303D00E9470001630A0F04DE750E060E080E02D
S11303E00E94BD009FEFA4E3BCE09150A040B04048
S11303F0E1F700C0000081E00E94700081E013C0BA
S113040049E850E060E080E00E94BD002FEF84E303
S11304109CE0215080409040E1F700C0000081E062
S11304200E94700080E026960FB6F894DEBF0FBEDF
S1130430CDBFDF91CF911F910895CF93C0E048E9DC
S113044050E060E080E00E94BD004AEA50E061E0D4
S113045084E00E94BD0084E1809363010E94D9007E
S113046080936301813041F446EB50E060E080E02A
S11304700E94BD00C1E012C0823041F443EC50E060
S113048060E080E00E94BD00C2E008C0833031F427
S113049044ED50E060E080E00E94BD004EED50E08D
S11304A061E080E00E94BD0084E1809363010E94CA
S11304B0D90080936301813011F40E94700080910F
S11304C06301823009F0BBCF81E00E947000C1302B
S11304D069F44FEE50E060E080E00E94BD004AEF16
S11304E050E061E080E00E94BD000EC0C23061F4C3
S11304F04FE051E060E080E00E94BD004BE151E03C
S113050061E080E00E94BD00CF91089581B3806FC7
S113051081BB87E20E947E004CE251E060E084E00F
S11305200E94BD002FEF83ED90E321508040904066
S1130530E1F700C0000080E001C08F5F8A30E8F37B
S11305400E941D018823E1F30E941D02FFCFAEE04B
S1130550B0E0EDEAF2E00C9468050D891E8986E0AE
S11305608C831A8309838FEF9FE79E838D83AE016B
S1130570475E5F4F6F89788DCE0101960E94C90254
S1130580EF81F885E00FF11F10822E96E4E00C94C1
S11305908405ABE0B0E0EFECF2E00C945A056C019A
S11305A07B018A01FC0117821682838181FFCCC101
S11305B0CE0101963C01F6019381F70193FD8591EB
S11305C093FF81917F01882309F4BAC1853239F4FC
S11305D093FD859193FF81917F01853229F4B601C2
S11305E090E00E94C004E7CF912C212C312CFFE134
S11305F0F315D8F08B3279F038F4803279F0833205
S1130600A1F4232D20611DC08D3261F0803369F483
S1130610232D216016C0832D8260382EE32DE460E3
S11306203E2E2AC0F32DF8601DC037FC2DC020EDEE
S1130630280F2A3040F08E32B9F436FC81C1232DC4
S11306402064322E19C036FE06C08AE0989E200D22
S11306501124922E11C0EAE02E9E200D1124222E88
S1130660F32DF0623F2E08C08C3621F4832D806870
S1130670382E02C0883641F4F70193FD859193FF2B
S113068081917F018111B3CF982F9F7D9554933031
S113069028F40C5F1F4F9FE399830DC0833631F01C
S11306A0833771F0833509F059C021C0F801808186
S11306B089830E5F1F4F88248394912C530113C0A8
S11306C02801F2E04F0E511CF801A080B18036FEE3
S11306D003C0692D70E002C06FEF7FEFC5010E9477
S11306E0B5044C018201F32DFF773F2E16C028017B
S11306F022E0420E511CF801A080B18036FE03C0F6
S1130700692D70E002C06FEF7FEFC5010E94AA045B
S11307104C01F32DF0683F2E820133FC1BC0822D67
S113072090E088169906B0F4B60180E290E00E9449
S1130730C0042A94F4CFF50137FC859137FE8191EA
S11307405F01B60190E00E94C00421102A9421E0C8
S1130750821A91088114910471F7E8C0843611F06B
S1130760893641F5F80137FE07C0608171818281C5
S113077093810C5F1F4F08C060817181072E000CAC
S1130780880B990B0E5F1F4FF32DFF763F2E97FFBB
S113079009C090958095709561957F4F8F4F9F4FBD
S11307A0F0683F2E2AE030E0A3010E94FC04882E6A
S11307B0861845C0853731F4232D2F7EB22E2AE0CA
S11307C030E025C0932D997FB92E8F36C1F018F4EF
S11307D0883579F0B5C0803719F0883721F0B0C07A
S11307E0E92FE061BE2EB4FE0DC0FB2DF460BF2ED8
S11307F009C034FE0AC0292F2660B22E06C028E0A4
S113080030E005C020E130E002C020E132E0F80130
S1130810B7FE07C060817181828193810C5F1F4F95
S113082006C06081718180E090E00E5F1F4FA301DC
S11308300E94FC04882E8618FB2DFF773F2E36FE7F
S11308400DC0232D2E7FA22E891458F434FE0BC024
S113085032FC09C0832D8E7EA82E05C0B82CA32C93
S113086003C0B82C01C0B92CA4FE0FC0FE01E80DD2
S1130870F11D8081803321F49A2D997EA92E09C01F
S1130880A2FE06C0B394B39404C08A2D867809F0FE
S1130890B394A3FC11C0A0FE06C0B21488F4280CC3
S11308A0922C9B180EC0B21460F4B60180E290E062
S11308B00E94C004B394F7CFB21418F42B1802C0EA
S11308C0982C212CA4FE10C0B60180E390E00E9475
S11308D0C004A2FE17C0A1FC03C088E790E002C0D8
S11308E088E590E0B6010CC08A2D867859F0A1FE07
S11308F002C08BE201C080E2A7FC8DE2B60190E069
S11309000E94C004891438F4B60180E390E00E9488
S1130910C0049A94F7CF8A94F301E80DF11D808105
S1130920B60190E00E94C0048110F5CF222009F4A2
S113093042CEB60180E290E00E94C0042A94F6CF31
S1130940F6018681978102C08FEF9FEF2B96E2E13B
S11309500C947605FC010590615070400110D8F7A5
S1130960809590958E0F9F1F0895FC0161507040F3
S113097001900110D8F7809590958E0F9F1F0895D0
S11309800F931F93CF93DF93FB01238121FD03C0BA
S11309908FEF9FEF2CC022FF16C046815781248120
S11309A035814217530744F4A081B1819D012F5F23
S11309B03F4F318320838C93268137812F5F3F4FB4
S11309C03783268314C08B01EC01FB010084F1857D
S11309D0E02D0995892BE1F6D80116968D919C910D
S11309E01797019617969C938E931697CE01DF91D5
S11309F0CF911F910F910895FA01AA27283051F140
S1130A00203181F1E8946F936E7F6E5F7F4F8F4F3B
S1130A109F4FAF4FB1E03ED0B4E03CD0670F781F9A
S1130A20891F9A1FA11D680F791F8A1F911DA11D7F
S1130A306A0F711D811D911DA11D20D009F46894B8
S1130A403F912AE0269F11243019305D3193DEF660
S1130A50CF010895462F4770405D4193B3E00FD016
S1130A60C9F7F6CF462F4F70405D4A3318F0495D01
S1130A7031FD4052419302D0A9F7EACFB4E0A695E4
S1130A809795879577956795BA95C9F70097610506
S1130A90710508959B01AC010A2E0694579547955C
S1130AA037952795BA95C9F7620F731F841F951F51
S1130AB0A01D08952F923F924F925F926F927F9262
S1130AC08F929F92AF92BF92CF92DF92EF92FF925A
S1130AD00F931F93CF93DF93CDB7DEB7CA1BDB0B06
S1130AE00FB6F894DEBF0FBECDBF09942A883988AB
S1130AF048885F846E847D848C849B84AA84B984B2
S1130B00C884DF80EE80FD800C811B81AA81B981BD
S1130B10CE0FD11D0FB6F894DEBF0FBECDBFED01D1
S1090B200895F894FFCFD4
S1130B2601456E7465722070617373776F72640029
S1130B3625752575257525752575257500506173EB
S1130B4673776F7264206F6B0050617373776F7283
S1130B5664206572726F720070656E2D312068694B
S1130B6667686C696768742D32005472792041672E
S1130B7661696E2D330050656E2044657465637437
S1130B86656400486967686C6967687465722044BF
S1130B9665742E0054727920616761696E0052652E
S1130BA6456E7465722D3120457869742D32005373
S1130BB6656C6563742070656E00426C75652D31D5
S1130BC620426C61636B2D32205265642D330053D1
S1130BD6656C656374207479706500477265656E2B
S1130BE62D312059656C6C6F772D320057656C6317
S1130BF66F6D65000708090102030405060108096B
S1130C06010203020908030004050608090807058A
S1130C1603010708090A0405060B0102030C0D006B
S1050C260E0FAB
S9030000FC
