:100000000C942A000C9447000C9447000C94470071
:100010000C9447000C9447000C9447000C94470044
:100020000C9447000C9447000C9447000C94470034
:100030000C9447000C9447000C9447000C94470024
:100040000C9447000C9447000C9447000C94470014
:100050000C94470011241FBECFE5D8E0DEBFCDBF12
:1000600010E0A0E6B0E0EAEBF4E002C005900D92EB
:10007000A83CB107D9F720E0A8ECB0E001C01D9280
:10008000AE3DB207E1F70E943C020C945B020C9477
:100090000000813021F488E0809360000895109280
:1000A00060000895382F362B20916000232B28BB49
:1000B00090916000932B946098BBEFE8F1E031974A
:1000C000F1F700C000008B7F682B80916000682BE7
:1000D00068BB8FE99FE00197F1F700C00000089529
:1000E000CF93C82F60E0807F0E94520060E08C2F89
:1000F0008295807F0E945200CF91089581E00E94F6
:1001000049008FE39CE90197F1F700C000008FEFF1
:1001100087BB82E00E94700088E20E9470008CE041
:100120000E94700086E00E94700081E00E947000D2
:100130000895CF93C82F61E0807F0E94520061E054
:100140008C2F8295807F0E945200CF9108950F934B
:100150001F93CF93DF938C01C0E0D0E003C00E94D7
:1001600099002196F801EC0FFD1F80818111F7CFD6
:10017000DF91CF911F910F910895CF93DF93EA0103
:10018000613031F058F0623029F0633029F007C057
:1001900090EC05C094E903C094ED01C090E88F7025
:1001A000892B0E947000CE010E94A700DF91CF91A1
:1001B000089511B888E480B984E086BF089584EA80
:1001C00086BF06B607FEFDCF089584E986BF06B652
:1001D00004FCFDCF0895862B83B984E886BF06B65C
:1001E00007FEFDCF81B1887F089583B984E886BF7B
:1001F00006B607FEFDCF81B1887F08958FE08ABBE8
:1002000080EF8BBB89B38F608095E1F3803249F03A
:1002100018F4803161F00CC0803429F0803829F066
:1002200007C091E005C092E003C093E001C090E0F8
:100230001ABA1BBA80EF8ABB8FE08BBB89B3806F81
:100240008095823049F018F4813061F00CC0843020
:1002500029F0883029F007C0E1E005C0E2E003C0E2
:10026000E3E001C0E0E08FE08ABB80EF8BBBF0E011
:10027000EE0FFF1FEE0FFF1FE854FF4FE90FF11DB8
:1002800080810895FC0140E050E071C0611135C0EB
:1002900097E069C082B3A92FB0E021E030E0092ED9
:1002A00002C0220F331F0A94E2F78F70282B22BB63
:1002B0002FEF30E782E0215030408040E1F700C06E
:1002C0000000973021F482B3806182BB0BC082B3FF
:1002D000119621E030E002C0220F331FAA95E2F709
:1002E000282B22BB2FEF30E782E0215030408040A6
:1002F000E1F700C000009F5F01C094E0983050F229
:1003000034C082B3A92FB0E021E030E0092E02C052
:10031000220F331F0A94E2F78F70282B22BB2FEF96
:1003200030E782E0215030408040E1F700C000001B
:10033000973021F482B3806882BB0BC082B31197DF
:1003400021E030E002C0220F331FAA95E2F7282BEC
:1003500022BB2FEF30E782E0215030408040E1F7B0
:1003600000C000009150943060F64F5F5F4F4E1711
:100370005F0708F48BCF089541E650E061E080E02C
:100380000E94BD0084E18093C8000E94FE0080931B
:10039000C8008130B9F543E750E060E080E00E949A
:1003A000BD004EE750E061E080E00E94BD000E9489
:1003B000FE008093C80081508330C8F70E94DF00A0
:1003C00060E080E20E94EB008091C8000E94F5008E
:1003D0000E94E50061E085E090E00E9442019E9964
:1003E000FECF0E94DF0060E080E20E94EB0080E030
:1003F0000E94F5000E94E50060E085E090E00E9428
:10040000420108958230B9F543E950E060E080E0B0
:100410000E94BD004FE950E061E080E00E94BD0015
:100420000E94FE008093C80081508230C8F70E946D
:10043000DF0060E080E20E94EB008091C8008D5FE9
:100440000E94F5000E94E50061E085E090E00E94D6
:1004500042019E99FECF0E94DF0060E080E20E9490
:10046000EB0080E00E94F5000E94E50060E085E07E
:1004700090E00E94420108950E94D90081B3806FEC
:1004800081BB87E20E947E0040EB50E060E084E0A8
:100490000E94BD002FEF83ED90E3215080409040FB
:1004A000E1F700C0000080E001C08F5F8A30E8F310
:0A04B0000E94BC01FFCFF894FFCFBB
:1004BA000170656E2D3120686967686C69676874B8
:1004CA002D320053656C6563742070656E00426C52
:1004DA0075652D3120426C61636B2D322052656443
:1004EA002D330053656C6563742074797065004719
:1004FA007265656E2D312059656C6C6F772D3200EF
:10050A0057656C636F6D65000708090A0405060BD9
:08051A000102030C0D000E0F9D
:00000001FF
