:100000000C942A000C943C000C943C000C943C0092
:100010000C943C000C943C000C943C000C943C0070
:100020000C943C000C943C000C943C000C943C0060
:100030000C943C000C943C000C943C000C943C0050
:100040000C943C000C943C000C943C000C943C0040
:100050000C943C0011241FBECFE5D8E0DEBFCDBF1D
:1000600020E0A0E6B0E001C01D92A136B207E1F7A2
:100070000E9451000C947E000C94000080E282B932
:10008000089584EC86BF06B607FEFDCF089584EC84
:1000900086BF06B607FEFDCF83B18093600083B1B3
:1000A00008958FEF8ABB87BB0E943E000E944100EB
:1000B0000E944700809160008630E8F44BB390E0E6
:1000C000019621E030E0B90102C0660F771F8A95E2
:1000D000E2F7CB01842B8BBB80916000811101C0C2
:1000E0001BBA7FEF84E39CE0715080409040E1F7C1
:1000F00000C00000DBCF80E090E00895F894FFCFCF
:00000001FF
