S0210000323035303931555F536164686F6F6E204D20492041202832292E7372656378
S11300000C942A000C9447000C9447000C9447006D
S11300100C9447000C9447000C9447000C94470040
S11300200C9447000C9447000C9447000C94470030
S11300300C9447000C9447000C9447000C94470020
S11300400C9447000C9447000C9447000C94470010
S11300500C94470011241FBECFE5D8E0DEBFCDBF0E
S113006011E0A0E6B0E0ECEDF5E002C005900D92E1
S1130070AE30B107D9F721E0AEE0B1E001C01D9286
S1130080A532B207E1F70E94B8020C94EC020C947A
S11300900000813021F488E080936000089510927C
S11300A060000895382F362B20916000232B28BB45
S11300B090916000932B946098BBEFE8F1E0319746
S11300C0F1F700C000008B7F682B80916000682BE3
S11300D068BB8FE99FE00197F1F700C00000089525
S11300E0CF93C82F60E0807F0E94520060E08C2F85
S11300F08295807F0E945200CF91089581E00E94F2
S113010049008FE39CE90197F1F700C000008FEFED
S113011087BB82E00E94700088E20E9470008CE03D
S11301200E94700086E00E94700081E00E947000CE
S11301300895CF93C82F61E0807F0E94520061E050
S11301408C2F8295807F0E945200CF9108950F9347
S11301501F93CF93DF938C01C0E0D0E003C00E94D3
S113016099002196F801EC0FFD1F80818111F7CFD2
S1130170DF91CF911F910F910895CF93DF93EA01FF
S1130180613031F058F0623029F0633029F007C053
S113019090EC05C094E903C094ED01C090E88F7021
S11301A0892B0E947000CE010E94A700DF91CF919D
S11301B0089511B888E480B984E086BF089584EA7C
S11301C086BF06B607FEFDCF089584E986BF06B64E
S11301D004FCFDCF0895862B83B984E886BF06B658
S11301E007FEFDCF81B1887F089583B984E886BF77
S11301F006B607FEFDCF81B1887F08958FE08ABBE4
S113020080EF8BBB89B38F608095E1F3803249F036
S113021018F4803161F00CC0803429F0803829F062
S113022007C091E005C092E003C093E001C090E0F4
S11302301ABA1BBA80EF8ABB8FE08BBB89B3806F7D
S11302408095823049F018F4813061F00CC084301C
S113025029F0883029F007C0E1E005C0E2E003C0DE
S1130260E3E001C0E0E08FE08ABB80EF8BBBF0E00D
S1130270EE0FFF1FEE0FFF1FE350FF4FE90FF11DBD
S113028080810895FC0140E050E071C0611135C0E7
S113029097E069C082B3A92FB0E021E030E0092ED5
S11302A002C0220F331F0A94E2F78F70282B22BB5F
S11302B02FEF30E782E0215030408040E1F700C06A
S11302C00000973021F482B3806182BB0BC082B3FB
S11302D0119621E030E002C0220F331FAA95E2F705
S11302E0282B22BB2FEF30E782E0215030408040A2
S11302F0E1F700C000009F5F01C094E0983050F225
S113030034C082B3A92FB0E021E030E0092E02C04E
S1130310220F331F0A94E2F78F70282B22BB2FEF92
S113032030E782E0215030408040E1F700C0000017
S1130330973021F482B3806882BB0BC082B31197DB
S113034021E030E002C0220F331FAA95E2F7282BE8
S113035022BB2FEF30E782E0215030408040E1F7AC
S113036000C000009150943060F64F5F5F4F4E170D
S11303705F0708F48BCF0895CF93DF93C0E041E685
S113038050E061E080E00E94BD0043E750E061E09E
S113039084E00E94BD0084E180930F010E94FE006E
S11303A080930F01813001F5C0910E01D0E0CC0F94
S11303B0DD1FCE010E94D70261E0680FCE010E94CA
S11303C0DF024FE750E060E080E00E94BD000E9441
S11303D0DF0060E080E20E94EB0086E00E94F5000E
S11303E00E94E500C1E036C0823009F5C0910E01DB
S11303F0D0E0CC0FDD1F2196CE010E94D70261E030
S1130400680FCE010E94DF024CE850E060E080E01B
S11304100E94BD000E94DF0060E080E20E94EB00C9
S113042087E00E94F5000E94E500C2E013C083301B
S113043089F44DE950E060E080E00E94BD000E9434
S1130440DF0060E080E20E94EB0088E00E94F5009B
S11304500E94E50047EA50E061E080E00E94BD00B0
S113046084E180930F010E94FE0080930F0181308C
S113047011F40E94700080910F01823009F07FCF47
S113048081E00E947000C130B9F548EB50E060E0B3
S113049080E00E94BD0043EC50E061E080E00E94F7
S11304A0BD000E94FE0080930F0181508330C8F785
S11304B00E94DF0060E080E20E94EB0080910F0167
S11304C00E94F5000E94E50061E085E090E00E9452
S11304D042019E99FECF0E94DF0060E080E20E940C
S11304E0EB0080E00E94F5000E94E50060E085E0FA
S11304F090E00E94420139C0C230B9F548ED50E0A5
S113050060E080E00E94BD0044EE50E061E080E0E5
S11305100E94BD000E94FE0080930F018150823032
S1130520C8F70E94DF0060E080E20E94EB00809147
S11305300F018D5F0E94F5000E94E50061E085E0F7
S113054090E00E9442019E99FECF0E94DF0060E08D
S113055080E20E94EB0080E00E94F5000E94E5002A
S113056060E085E090E00E944201DF91CF91089520
S11305700E94D90081B3806F81BB87E20E947E0014
S113058045EF50E060E084E00E94BD002FEF83ED72
S113059090E3215080409040E1F700C0000080E0EB
S11305A001C08F5F8A30E8F30E94BC01FFCFE1995C
S11305B0FECF9FBB8EBBE09A99278DB30895262F5B
S11305C0E199FECF9FBB8EBB2DBB0FB6F894E29A88
S10F05D0E19A0FBE01960895F894FFCF45
S11305DC0170656E2D3120686967686C6967687491
S11305EC2D320054727920416761696E2D330050AD
S11305FC656E204465746563746564004869676856
S113060C6C696768746572204465742E0054727941
S113061C20616761696E005265456E7465722D3197
S113062C20457869742D320053656C6563742070B1
S113063C656E00426C75652D3120426C61636B2DC7
S113064C32205265642D330053656C6563742074D9
S113065C79706500477265656E2D312059656C6C37
S113066C6F772D320057656C636F6D650007080951
S111067C0A0405060B0102030C0D000E0F000C
S9030000FC
