:100000000C942A000C943C000C943C000C943C0092
:100010000C943C000C943C000C943C000C943C0070
:100020000C943C000C943C000C943C000C943C0060
:100030000C943C000C943C000C943C000C943C0050
:100040000C943C000C943C000C943C000C943C0040
:100050000C943C0011241FBECFE5D8E0DEBFCDBF1D
:1000600020E0A0E6B0E001C01D92A136B207E1F7A2
:100070000E94AF000C94DD000C94000080E282B975
:10008000089584EC86BF06B607FEFDCF089584EC84
:1000900086BF06B607FEFDCF83B18093600083B1B3
:1000A000089540E026C098B321E030E0082E02C059
:1000B000220F331F0A94E2F7922B98BB90E007C0FF
:1000C000E7ECF0E03197F1F700C000009F5F9A3055
:1000D000B8F398B32095292328BB90E007C0E7EC3C
:1000E000F0E03197F1F700C000009F5F9A30B8F35D
:1000F0004F5F4436C0F2FFEF24E33CE0F150204074
:100100003040E1F700C0000040E026C098B321E095
:1001100030E0082E02C0220F331F0A94E2F7922B20
:1001200098BB90E007C0E7ECF0E03197F1F700C032
:1001300000009F5F9F30B8F398B32095292328BB18
:1001400090E007C0E7ECF0E03197F1F700C0000065
:100150009F5F9F30B8F34F5F4436C0F208958FEF32
:100160008ABB87BB0E943E000E9441000E9447005C
:10017000809160008630A0F44BB390E0019621E0BE
:1001800030E0B90102C0660F771F8A95E2F7CB0114
:10019000842B8BBB80916000811105C01BBA03C00A
:1001A00086500E9451007FEF84E39CE071508040B4
:0E01B0009040E1F700C00000D7CFF894FFCFD9
:00000001FF
