:100000000C942A000C9447000C9447000C94470071
:100010000C9447000C9447000C9447000C94470044
:100020000C9447000C9447000C948D010C944700ED
:100030000C9447000C9470000C9447000C944700FB
:100040000C9447000C9447000C9447000C94470014
:100050000C94470011241FBECFE5D8E0DEBFCDBF12
:1000600010E0A0E6B0E0EEE2F6E002C005900D92EE
:10007000A23CB107D9F720E0A2ECB0E001C01D928C
:10008000A73EB207E1F70E947F000C9415030C9481
:1000900000009C0140E050E060E271EA87E090E0FF
:1000A0000E94D4022150310930BD29B988E18AB9B2
:1000B0008EE880BD789408955D9BFECF8CB908953D
:1000C000CF93DF93EC0103C021960E945C008881EE
:1000D0008111FACF8DE00E945C00DF91CF910895ED
:1000E0001F920F920FB60F9211248F938CB18093B1
:1000F000C8008F910F900FBE0F901F90189580E849
:1001000095E20E94490084B3846084BB83B7886011
:1001100083BF83B7826083BF12BE8AE08CBF89B77A
:10012000826089BF789485B38B7F85BB25E82A954B
:10013000F1F7000085B3846085BB35E83A95F1F7A7
:10014000000085B38B7F85BB04C01092C70010925E
:10015000C6009B9BFACF14C06091C6007091C70087
:1001600080E090E00E94460226E636E644E850E44D
:100170000E94A5010E9417027093C5006093C400FD
:100180009B99EACF8FE798E321E08150904020408F
:10019000E1F700C0000085B38B7F85BB35E83A9559
:1001A000F1F7000085B3846085BB85E88A95F1F797
:1001B000000085B38B7F85BB04C01092C7001092EE
:1001C000C6009C9BFACF14C06091C6007091C70016
:1001D00080E090E00E94460226E636E644E850E4DD
:1001E0000E94A5010E9417027093C3006093C20091
:1001F0009C99EACF8091C4009091C500823391050B
:1002000088F42091C2003091C3002233310550F0B0
:1002100083E1E0E6F0E0A9ECB0E001900D928A9570
:10022000E1F722C02091C2003091C3002233310592
:1002300068F48233910550F08BE1E3E7F0E0A9EC3C
:10024000B0E001900D928A95E1F70EC0223331059E
:1002500058F4C29748F480E1EEE8F0E0A9ECB0E091
:1002600001900D928A95E1F79FE728E331E09150E4
:1002700020403040E1F700C000008EE990E00E948D
:1002800060008FEF94E32CE0815090402040E1F734
:1002900000C000008EE990E00E9460003FEF84E320
:1002A0009CE0315080409040E1F700C0000081EABE
:1002B00090E00E9460002FEF34E38CE0215030404A
:1002C0008040E1F700C000008BEA90E00E946000EF
:1002D0009FEF24E33CE0915020403040E1F700C024
:1002E000000089EC90E00E9460008FEF94E32CE026
:1002F000815090402040E1F700C000008AE10E9458
:100300005C003FEF89E592E622E03150804090406A
:100310002040D9F700C0000006CF1F920F920FB601
:100320000F9211248F939F938091C6009091C700E4
:1003300001969093C7008093C60012BE9F918F9143
:100340000F900FBE0F901F9018950E94B9010C944A
:100350009A020E94930258F00E948C0240F029F405
:100360005F3F29F00C94830251110C94CE020C943F
:1003700089020E94AB0268F39923B1F3552391F3EC
:10038000951B550BBB27AA2762177307840738F004
:100390009F5F5F4F220F331F441FAA1FA9F335D061
:1003A0000E2E3AF0E0E832D091505040E695001C15
:1003B000CAF72BD0FE2F29D0660F771F881FBB1FCF
:1003C000261737074807AB07B0E809F0BB0B802DAD
:1003D000BF01FF2793585F4F3AF09E3F510578F0D9
:1003E0000C9483020C94CE025F3FE4F3983ED4F366
:1003F000869577956795B795F7959F5FC9F7880FAD
:10040000911D9695879597F90895E1E0660F771FFE
:10041000881FBB1F621773078407BA0720F0621B8F
:10042000730B840BBA0BEE1F88F7E09508950E94BA
:10043000B30288F09F5798F0B92F9927B751B0F0C1
:10044000E1F0660F771F881F991F1AF0BA95C9F758
:1004500014C0B13091F00E94CD02B1E008950C9427
:10046000CD02672F782F8827B85F39F0B93FCCF3DA
:10047000869577956795B395D9F73EF490958095D5
:10048000709561957F4F8F4F9F4F0895E89409C0F5
:1004900097FB3EF490958095709561957F4F8F4FB7
:1004A0009F4F9923A9F0F92F96E9BB279395F695CD
:1004B000879577956795B795F111F8CFFAF4BB0F4B
:1004C00011F460FF1BC06F5F7F4F8F4F9F4F16C0AF
:1004D000882311F096E911C0772321F09EE8872F39
:1004E000762F05C0662371F096E8862F70E060E0F5
:1004F0002AF09A95660F771F881FDAF7880F96956E
:10050000879597F9089597F99F6780E870E060E014
:1005100008959FEF80EC089500240A94161617069C
:1005200018060906089500240A94121613061406E4
:1005300005060895092E0394000C11F4882352F047
:10054000BB0F40F4BF2B11F460FF04C06F5F7F4FFF
:100550008F4F9F4F089557FD9058440F551F59F0E6
:100560005F3F71F04795880F97FB991F61F09F3FA0
:1005700079F087950895121613061406551FF2CFC9
:100580004695F1DF08C0161617061806991FF1CF19
:1005900086957105610508940895E894BB27662740
:1005A0007727CB0197F90895052E97FB1EF4009449
:1005B0000E94EB0257FD07D00E94F30207FC03D014
:1005C0004EF40C94EB0250954095309521953F4F99
:1005D0004F4F5F4F089590958095709561957F4F2F
:1005E0008F4F9F4F0895A1E21A2EAA1BBB1BFD013E
:1005F0000DC0AA1FBB1FEE1FFF1FA217B307E40702
:10060000F50720F0A21BB30BE40BF50B661F771F59
:10061000881F991F1A9469F7609570958095909539
:0E0620009B01AC01BD01CF010895F894FFCFFE
:10062E0050656E732062696E2069732066696C6C0A
:10063E00656400486967686C6967687465727320E1
:10064E0062696E2069732066696C6C65640042692C
:10065E006E73206172652066696C6C65640041542E
:10066E000041542B434D47463D310041542B434DE1
:10067E0047533D222B393437373235363235303900
:02068E00220048
:00000001FF
